{"abi":[{"type":"constructor","inputs":[{"name":"_token","type":"address","internalType":"address"}],"stateMutability":"nonpayable"},{"type":"function","name":"approve","inputs":[{"name":"to","type":"address","internalType":"address"},{"name":"tokenId","type":"uint256","internalType":"uint256"}],"outputs":[],"stateMutability":"nonpayable"},{"type":"function","name":"balanceOf","inputs":[{"name":"owner","type":"address","internalType":"address"}],"outputs":[{"name":"","type":"uint256","internalType":"uint256"}],"stateMutability":"view"},{"type":"function","name":"getApproved","inputs":[{"name":"tokenId","type":"uint256","internalType":"uint256"}],"outputs":[{"name":"","type":"address","internalType":"address"}],"stateMutability":"view"},{"type":"function","name":"isApprovedForAll","inputs":[{"name":"owner","type":"address","internalType":"address"},{"name":"operator","type":"address","internalType":"address"}],"outputs":[{"name":"","type":"bool","internalType":"bool"}],"stateMutability":"view"},{"type":"function","name":"maxPerWallet","inputs":[],"outputs":[{"name":"","type":"uint256","internalType":"uint256"}],"stateMutability":"view"},{"type":"function","name":"mintWithETH","inputs":[],"outputs":[],"stateMutability":"payable"},{"type":"function","name":"mintWithToken","inputs":[],"outputs":[],"stateMutability":"nonpayable"},{"type":"function","name":"name","inputs":[],"outputs":[{"name":"","type":"string","internalType":"string"}],"stateMutability":"view"},{"type":"function","name":"owner","inputs":[],"outputs":[{"name":"","type":"address","internalType":"address"}],"stateMutability":"view"},{"type":"function","name":"ownerOf","inputs":[{"name":"tokenId","type":"uint256","internalType":"uint256"}],"outputs":[{"name":"","type":"address","internalType":"address"}],"stateMutability":"view"},{"type":"function","name":"paymentToken","inputs":[],"outputs":[{"name":"","type":"address","internalType":"contract IERC20"}],"stateMutability":"view"},{"type":"function","name":"renounceOwnership","inputs":[],"outputs":[],"stateMutability":"nonpayable"},{"type":"function","name":"safeTransferFrom","inputs":[{"name":"from","type":"address","internalType":"address"},{"name":"to","type":"address","internalType":"address"},{"name":"tokenId","type":"uint256","internalType":"uint256"}],"outputs":[],"stateMutability":"nonpayable"},{"type":"function","name":"safeTransferFrom","inputs":[{"name":"from","type":"address","internalType":"address"},{"name":"to","type":"address","internalType":"address"},{"name":"tokenId","type":"uint256","internalType":"uint256"},{"name":"data","type":"bytes","internalType":"bytes"}],"outputs":[],"stateMutability":"nonpayable"},{"type":"function","name":"setApprovalForAll","inputs":[{"name":"operator","type":"address","internalType":"address"},{"name":"approved","type":"bool","internalType":"bool"}],"outputs":[],"stateMutability":"nonpayable"},{"type":"function","name":"supportsInterface","inputs":[{"name":"interfaceId","type":"bytes4","internalType":"bytes4"}],"outputs":[{"name":"","type":"bool","internalType":"bool"}],"stateMutability":"view"},{"type":"function","name":"symbol","inputs":[],"outputs":[{"name":"","type":"string","internalType":"string"}],"stateMutability":"view"},{"type":"function","name":"ticketPriceETH","inputs":[],"outputs":[{"name":"","type":"uint256","internalType":"uint256"}],"stateMutability":"view"},{"type":"function","name":"ticketPriceToken","inputs":[],"outputs":[{"name":"","type":"uint256","internalType":"uint256"}],"stateMutability":"view"},{"type":"function","name":"tokenIdCounter","inputs":[],"outputs":[{"name":"","type":"uint256","internalType":"uint256"}],"stateMutability":"view"},{"type":"function","name":"tokenURI","inputs":[{"name":"tokenId","type":"uint256","internalType":"uint256"}],"outputs":[{"name":"","type":"string","internalType":"string"}],"stateMutability":"view"},{"type":"function","name":"transferFrom","inputs":[{"name":"from","type":"address","internalType":"address"},{"name":"to","type":"address","internalType":"address"},{"name":"tokenId","type":"uint256","internalType":"uint256"}],"outputs":[],"stateMutability":"nonpayable"},{"type":"function","name":"transferOwnership","inputs":[{"name":"newOwner","type":"address","internalType":"address"}],"outputs":[],"stateMutability":"nonpayable"},{"type":"function","name":"walletMints","inputs":[{"name":"","type":"address","internalType":"address"}],"outputs":[{"name":"","type":"uint256","internalType":"uint256"}],"stateMutability":"view"},{"type":"function","name":"withdrawETH","inputs":[],"outputs":[],"stateMutability":"nonpayable"},{"type":"event","name":"Approval","inputs":[{"name":"owner","type":"address","indexed":true,"internalType":"address"},{"name":"approved","type":"address","indexed":true,"internalType":"address"},{"name":"tokenId","type":"uint256","indexed":true,"internalType":"uint256"}],"anonymous":false},{"type":"event","name":"ApprovalForAll","inputs":[{"name":"owner","type":"address","indexed":true,"internalType":"address"},{"name":"operator","type":"address","indexed":true,"internalType":"address"},{"name":"approved","type":"bool","indexed":false,"internalType":"bool"}],"anonymous":false},{"type":"event","name":"OwnershipTransferred","inputs":[{"name":"previousOwner","type":"address","indexed":true,"internalType":"address"},{"name":"newOwner","type":"address","indexed":true,"internalType":"address"}],"anonymous":false},{"type":"event","name":"Transfer","inputs":[{"name":"from","type":"address","indexed":true,"internalType":"address"},{"name":"to","type":"address","indexed":true,"internalType":"address"},{"name":"tokenId","type":"uint256","indexed":true,"internalType":"uint256"}],"anonymous":false},{"type":"error","name":"ERC721IncorrectOwner","inputs":[{"name":"sender","type":"address","internalType":"address"},{"name":"tokenId","type":"uint256","internalType":"uint256"},{"name":"owner","type":"address","internalType":"address"}]},{"type":"error","name":"ERC721InsufficientApproval","inputs":[{"name":"operator","type":"address","internalType":"address"},{"name":"tokenId","type":"uint256","internalType":"uint256"}]},{"type":"error","name":"ERC721InvalidApprover","inputs":[{"name":"approver","type":"address","internalType":"address"}]},{"type":"error","name":"ERC721InvalidOperator","inputs":[{"name":"operator","type":"address","internalType":"address"}]},{"type":"error","name":"ERC721InvalidOwner","inputs":[{"name":"owner","type":"address","internalType":"address"}]},{"type":"error","name":"ERC721InvalidReceiver","inputs":[{"name":"receiver","type":"address","internalType":"address"}]},{"type":"error","name":"ERC721InvalidSender","inputs":[{"name":"sender","type":"address","internalType":"address"}]},{"type":"error","name":"ERC721NonexistentToken","inputs":[{"name":"tokenId","type":"uint256","internalType":"uint256"}]},{"type":"error","name":"OwnableInvalidOwner","inputs":[{"name":"owner","type":"address","internalType":"address"}]},{"type":"error","name":"OwnableUnauthorizedAccount","inputs":[{"name":"account","type":"address","internalType":"address"}]}],"bytecode":{"object":"0x6080604052662386f26fc10000600755678ac7230489e80000600855600260095534801561002b575f5ffd5b50604051612e3a380380612e3a833981810160405281019061004d91906102c2565b336040518060400160405280600b81526020017f4576656e745469636b65740000000000000000000000000000000000000000008152506040518060400160405280600481526020017f45544b5400000000000000000000000000000000000000000000000000000000815250815f90816100c8919061053b565b5080600190816100d8919061053b565b5050505f73ffffffffffffffffffffffffffffffffffffffff168173ffffffffffffffffffffffffffffffffffffffff160361014b575f6040517f1e4fbdf70000000000000000000000000000000000000000000000000000000081526004016101429190610619565b60405180910390fd5b61015a816101a160201b60201c565b5080600b5f6101000a81548173ffffffffffffffffffffffffffffffffffffffff021916908373ffffffffffffffffffffffffffffffffffffffff16021790555050610632565b5f60065f9054906101000a900473ffffffffffffffffffffffffffffffffffffffff1690508160065f6101000a81548173ffffffffffffffffffffffffffffffffffffffff021916908373ffffffffffffffffffffffffffffffffffffffff1602179055508173ffffffffffffffffffffffffffffffffffffffff168173ffffffffffffffffffffffffffffffffffffffff167f8be0079c531659141344cd1fd0a4f28419497f9722a3daafe3b4186f6b6457e060405160405180910390a35050565b5f5ffd5b5f73ffffffffffffffffffffffffffffffffffffffff82169050919050565b5f61029182610268565b9050919050565b6102a181610287565b81146102ab575f5ffd5b50565b5f815190506102bc81610298565b92915050565b5f602082840312156102d7576102d6610264565b5b5f6102e4848285016102ae565b91505092915050565b5f81519050919050565b7f4e487b71000000000000000000000000000000000000000000000000000000005f52604160045260245ffd5b7f4e487b71000000000000000000000000000000000000000000000000000000005f52602260045260245ffd5b5f600282049050600182168061036857607f821691505b60208210810361037b5761037a610324565b5b50919050565b5f819050815f5260205f209050919050565b5f6020601f8301049050919050565b5f82821b905092915050565b5f600883026103dd7fffffffffffffffffffffffffffffffffffffffffffffffffffffffffffffffff826103a2565b6103e786836103a2565b95508019841693508086168417925050509392505050565b5f819050919050565b5f819050919050565b5f61042b610426610421846103ff565b610408565b6103ff565b9050919050565b5f819050919050565b61044483610411565b61045861045082610432565b8484546103ae565b825550505050565b5f5f905090565b61046f610460565b61047a81848461043b565b505050565b5f5b828110156104a0576104955f828401610467565b600181019050610481565b505050565b601f8211156104f357828211156104f2576104bf81610381565b6104c883610393565b6104d185610393565b60208610156104de575f90505b8083016104ed8284038261047f565b505050505b5b505050565b5f82821c905092915050565b5f6105135f19846008026104f8565b1980831691505092915050565b5f61052b8383610504565b9150826002028217905092915050565b610544826102ed565b67ffffffffffffffff81111561055d5761055c6102f7565b5b6105678254610351565b6105728282856104a5565b5f60209050601f8311600181146105a3575f8415610591578287015190505b61059b8582610520565b865550610602565b601f1984166105b186610381565b5f5b828110156105d8578489015182556001820191506020850194506020810190506105b3565b868310156105f557848901516105f1601f891682610504565b8355505b6001600288020188555050505b505050505050565b61061381610287565b82525050565b5f60208201905061062c5f83018461060a565b92915050565b6127fb8061063f5f395ff3fe608060405260043610610165575f3560e01c8063715018a6116100d0578063b88d4fde11610089578063e086e5ec11610063578063e086e5ec146104e3578063e985e9c5146104f9578063f0293fd314610535578063f2fde38b1461057157610165565b8063b88d4fde14610455578063bce709331461047d578063c87b56dd146104a757610165565b8063715018a61461038f5780638da5cb5b146103a55780638f2aef5b146103cf57806395d89b41146103d957806398bdf6f514610403578063a22cb4651461042d57610165565b806323b872dd1161012257806323b872dd146102735780633013ce291461029b57806342842e0e146102c5578063453c2310146102ed5780636352211e1461031757806370a082311461035357610165565b806301ffc9a71461016957806306fdde03146101a5578063081812fc146101cf5780630911b51f1461020b578063095ea7b314610235578063171be8d01461025d575b5f5ffd5b348015610174575f5ffd5b5061018f600480360381019061018a9190611e7a565b610599565b60405161019c9190611ebf565b60405180910390f35b3480156101b0575f5ffd5b506101b961067a565b6040516101c69190611f48565b60405180910390f35b3480156101da575f5ffd5b506101f560048036038101906101f09190611f9b565b610709565b6040516102029190612005565b60405180910390f35b348015610216575f5ffd5b5061021f610724565b60405161022c919061202d565b60405180910390f35b348015610240575f5ffd5b5061025b60048036038101906102569190612070565b61072a565b005b348015610268575f5ffd5b50610271610740565b005b34801561027e575f5ffd5b50610299600480360381019061029491906120ae565b6108d9565b005b3480156102a6575f5ffd5b506102af6109d8565b6040516102bc9190612159565b60405180910390f35b3480156102d0575f5ffd5b506102eb60048036038101906102e691906120ae565b6109fd565b005b3480156102f8575f5ffd5b50610301610a1c565b60405161030e919061202d565b60405180910390f35b348015610322575f5ffd5b5061033d60048036038101906103389190611f9b565b610a22565b60405161034a9190612005565b60405180910390f35b34801561035e575f5ffd5b5061037960048036038101906103749190612172565b610a33565b604051610386919061202d565b60405180910390f35b34801561039a575f5ffd5b506103a3610ae9565b005b3480156103b0575f5ffd5b506103b9610afc565b6040516103c69190612005565b60405180910390f35b6103d7610b24565b005b3480156103e4575f5ffd5b506103ed610c61565b6040516103fa9190611f48565b60405180910390f35b34801561040e575f5ffd5b50610417610cf1565b604051610424919061202d565b60405180910390f35b348015610438575f5ffd5b50610453600480360381019061044e91906121c7565b610cf7565b005b348015610460575f5ffd5b5061047b60048036038101906104769190612331565b610d0d565b005b348015610488575f5ffd5b50610491610d32565b60405161049e919061202d565b60405180910390f35b3480156104b2575f5ffd5b506104cd60048036038101906104c89190611f9b565b610d38565b6040516104da9190611f48565b60405180910390f35b3480156104ee575f5ffd5b506104f7610d9e565b005b348015610504575f5ffd5b5061051f600480360381019061051a91906123b1565b610df3565b60405161052c9190611ebf565b60405180910390f35b348015610540575f5ffd5b5061055b60048036038101906105569190612172565b610e81565b604051610568919061202d565b60405180910390f35b34801561057c575f5ffd5b5061059760048036038101906105929190612172565b610e96565b005b5f7f80ac58cd000000000000000000000000000000000000000000000000000000007bffffffffffffffffffffffffffffffffffffffffffffffffffffffff1916827bffffffffffffffffffffffffffffffffffffffffffffffffffffffff1916148061066357507f5b5e139f000000000000000000000000000000000000000000000000000000007bffffffffffffffffffffffffffffffffffffffffffffffffffffffff1916827bffffffffffffffffffffffffffffffffffffffffffffffffffffffff1916145b80610673575061067282610f1a565b5b9050919050565b60605f80546106889061241c565b80601f01602080910402602001604051908101604052809291908181526020018280546106b49061241c565b80156106ff5780601f106106d6576101008083540402835291602001916106ff565b820191905f5260205f20905b8154815290600101906020018083116106e257829003601f168201915b5050505050905090565b5f61071382610f83565b5061071d82611009565b9050919050565b60075481565b61073c8282610737611042565b611049565b5050565b600954600c5f3373ffffffffffffffffffffffffffffffffffffffff1673ffffffffffffffffffffffffffffffffffffffff1681526020019081526020015f2054106107c1576040517f08c379a00000000000000000000000000000000000000000000000000000000081526004016107b890612496565b60405180910390fd5b600b5f9054906101000a900473ffffffffffffffffffffffffffffffffffffffff1673ffffffffffffffffffffffffffffffffffffffff166323b872dd33306008546040518463ffffffff1660e01b8152600401610821939291906124b4565b6020604051808303815f875af115801561083d573d5f5f3e3d5ffd5b505050506040513d601f19601f8201168201806040525081019061086191906124fd565b50600c5f3373ffffffffffffffffffffffffffffffffffffffff1673ffffffffffffffffffffffffffffffffffffffff1681526020019081526020015f205f8154809291906108af90612555565b91905055506108c033600a5461105b565b600a5f8154809291906108d290612555565b9190505550565b5f73ffffffffffffffffffffffffffffffffffffffff168273ffffffffffffffffffffffffffffffffffffffff1603610949575f6040517f64a0ae920000000000000000000000000000000000000000000000000000000081526004016109409190612005565b60405180910390fd5b5f61095c8383610957611042565b611078565b90508373ffffffffffffffffffffffffffffffffffffffff168173ffffffffffffffffffffffffffffffffffffffff16146109d2578382826040517f64283d7b0000000000000000000000000000000000000000000000000000000081526004016109c99392919061259c565b60405180910390fd5b50505050565b600b5f9054906101000a900473ffffffffffffffffffffffffffffffffffffffff1681565b610a1783838360405180602001604052805f815250610d0d565b505050565b60095481565b5f610a2c82610f83565b9050919050565b5f5f73ffffffffffffffffffffffffffffffffffffffff168273ffffffffffffffffffffffffffffffffffffffff1603610aa4575f6040517f89c62b64000000000000000000000000000000000000000000000000000000008152600401610a9b9190612005565b60405180910390fd5b60035f8373ffffffffffffffffffffffffffffffffffffffff1673ffffffffffffffffffffffffffffffffffffffff1681526020019081526020015f20549050919050565b610af1611283565b610afa5f61130a565b565b5f60065f9054906101000a900473ffffffffffffffffffffffffffffffffffffffff16905090565b600754341015610b69576040517f08c379a0000000000000000000000000000000000000000000000000000000008152600401610b609061261b565b60405180910390fd5b600954600c5f3373ffffffffffffffffffffffffffffffffffffffff1673ffffffffffffffffffffffffffffffffffffffff1681526020019081526020015f205410610bea576040517f08c379a0000000000000000000000000000000000000000000000000000000008152600401610be190612496565b60405180910390fd5b600c5f3373ffffffffffffffffffffffffffffffffffffffff1673ffffffffffffffffffffffffffffffffffffffff1681526020019081526020015f205f815480929190610c3790612555565b9190505550610c4833600a5461105b565b600a5f815480929190610c5a90612555565b9190505550565b606060018054610c709061241c565b80601f0160208091040260200160405190810160405280929190818152602001828054610c9c9061241c565b8015610ce75780601f10610cbe57610100808354040283529160200191610ce7565b820191905f5260205f20905b815481529060010190602001808311610cca57829003601f168201915b5050505050905090565b600a5481565b610d09610d02611042565b83836113cd565b5050565b610d188484846108d9565b610d2c610d23611042565b858585856115a6565b50505050565b60085481565b6060610d4382610f83565b505f610d4d611752565b90505f815111610d6b5760405180602001604052805f815250610d96565b80610d7584611768565b604051602001610d86929190612673565b6040516020818303038152906040525b915050919050565b610da6611283565b610dae610afc565b73ffffffffffffffffffffffffffffffffffffffff166108fc4790811502906040515f60405180830381858888f19350505050158015610df0573d5f5f3e3d5ffd5b50565b5f60055f8473ffffffffffffffffffffffffffffffffffffffff1673ffffffffffffffffffffffffffffffffffffffff1681526020019081526020015f205f8373ffffffffffffffffffffffffffffffffffffffff1673ffffffffffffffffffffffffffffffffffffffff1681526020019081526020015f205f9054906101000a900460ff16905092915050565b600c602052805f5260405f205f915090505481565b610e9e611283565b5f73ffffffffffffffffffffffffffffffffffffffff168173ffffffffffffffffffffffffffffffffffffffff1603610f0e575f6040517f1e4fbdf7000000000000000000000000000000000000000000000000000000008152600401610f059190612005565b60405180910390fd5b610f178161130a565b50565b5f7f01ffc9a7000000000000000000000000000000000000000000000000000000007bffffffffffffffffffffffffffffffffffffffffffffffffffffffff1916827bffffffffffffffffffffffffffffffffffffffffffffffffffffffff1916149050919050565b5f5f610f8e83611832565b90505f73ffffffffffffffffffffffffffffffffffffffff168173ffffffffffffffffffffffffffffffffffffffff160361100057826040517f7e273289000000000000000000000000000000000000000000000000000000008152600401610ff7919061202d565b60405180910390fd5b80915050919050565b5f60045f8381526020019081526020015f205f9054906101000a900473ffffffffffffffffffffffffffffffffffffffff169050919050565b5f33905090565b611056838383600161186b565b505050565b611074828260405180602001604052805f815250611a2a565b5050565b5f5f61108384611832565b90505f73ffffffffffffffffffffffffffffffffffffffff168373ffffffffffffffffffffffffffffffffffffffff16146110c4576110c3818486611a4d565b5b5f73ffffffffffffffffffffffffffffffffffffffff168173ffffffffffffffffffffffffffffffffffffffff161461114f576111035f855f5f61186b565b600160035f8373ffffffffffffffffffffffffffffffffffffffff1673ffffffffffffffffffffffffffffffffffffffff1681526020019081526020015f205f82825403925050819055505b5f73ffffffffffffffffffffffffffffffffffffffff168573ffffffffffffffffffffffffffffffffffffffff16146111ce57600160035f8773ffffffffffffffffffffffffffffffffffffffff1673ffffffffffffffffffffffffffffffffffffffff1681526020019081526020015f205f82825401925050819055505b8460025f8681526020019081526020015f205f6101000a81548173ffffffffffffffffffffffffffffffffffffffff021916908373ffffffffffffffffffffffffffffffffffffffff160217905550838573ffffffffffffffffffffffffffffffffffffffff168273ffffffffffffffffffffffffffffffffffffffff167fddf252ad1be2c89b69c2b068fc378daa952ba7f163c4a11628f55a4df523b3ef60405160405180910390a4809150509392505050565b61128b611042565b73ffffffffffffffffffffffffffffffffffffffff166112a9610afc565b73ffffffffffffffffffffffffffffffffffffffff1614611308576112cc611042565b6040517f118cdaa70000000000000000000000000000000000000000000000000000000081526004016112ff9190612005565b60405180910390fd5b565b5f60065f9054906101000a900473ffffffffffffffffffffffffffffffffffffffff1690508160065f6101000a81548173ffffffffffffffffffffffffffffffffffffffff021916908373ffffffffffffffffffffffffffffffffffffffff1602179055508173ffffffffffffffffffffffffffffffffffffffff168173ffffffffffffffffffffffffffffffffffffffff167f8be0079c531659141344cd1fd0a4f28419497f9722a3daafe3b4186f6b6457e060405160405180910390a35050565b5f73ffffffffffffffffffffffffffffffffffffffff168373ffffffffffffffffffffffffffffffffffffffff160361143d575f6040517fa9fbf51f0000000000000000000000000000000000000000000000000000000081526004016114349190612005565b60405180910390fd5b5f73ffffffffffffffffffffffffffffffffffffffff168273ffffffffffffffffffffffffffffffffffffffff16036114ad57816040517f5b08ba180000000000000000000000000000000000000000000000000000000081526004016114a49190612005565b60405180910390fd5b8060055f8573ffffffffffffffffffffffffffffffffffffffff1673ffffffffffffffffffffffffffffffffffffffff1681526020019081526020015f205f8473ffffffffffffffffffffffffffffffffffffffff1673ffffffffffffffffffffffffffffffffffffffff1681526020019081526020015f205f6101000a81548160ff0219169083151502179055508173ffffffffffffffffffffffffffffffffffffffff168373ffffffffffffffffffffffffffffffffffffffff167f17307eab39ab6107e8899845ad3d59bd9653f200f220920489ca2b5937696c31836040516115999190611ebf565b60405180910390a3505050565b5f8373ffffffffffffffffffffffffffffffffffffffff163b111561174b578273ffffffffffffffffffffffffffffffffffffffff1663150b7a02868685856040518563ffffffff1660e01b815260040161160494939291906126e8565b6020604051808303815f875af192505050801561163f57506040513d601f19601f8201168201806040525081019061163c9190612746565b60015b6116c0573d805f811461166d576040519150601f19603f3d011682016040523d82523d5f602084013e611672565b606091505b505f8151036116b857836040517f64a0ae920000000000000000000000000000000000000000000000000000000081526004016116af9190612005565b60405180910390fd5b805160208201fd5b63150b7a0260e01b7bffffffffffffffffffffffffffffffffffffffffffffffffffffffff1916817bffffffffffffffffffffffffffffffffffffffffffffffffffffffff19161461174957836040517f64a0ae920000000000000000000000000000000000000000000000000000000081526004016117409190612005565b60405180910390fd5b505b5050505050565b606060405180602001604052805f815250905090565b60605f600161177684611b10565b0190505f8167ffffffffffffffff8111156117945761179361220d565b5b6040519080825280601f01601f1916602001820160405280156117c65781602001600182028036833780820191505090505b5090505f82602083010190505b600115611827578080600190039150507f3031323334353637383961626364656600000000000000000000000000000000600a86061a8153600a858161181c5761181b612771565b5b0494505f85036117d3575b819350505050919050565b5f60025f8381526020019081526020015f205f9054906101000a900473ffffffffffffffffffffffffffffffffffffffff169050919050565b80806118a357505f73ffffffffffffffffffffffffffffffffffffffff168273ffffffffffffffffffffffffffffffffffffffff1614155b156119d5575f6118b284610f83565b90505f73ffffffffffffffffffffffffffffffffffffffff168373ffffffffffffffffffffffffffffffffffffffff161415801561191c57508273ffffffffffffffffffffffffffffffffffffffff168173ffffffffffffffffffffffffffffffffffffffff1614155b801561192f575061192d8184610df3565b155b1561197157826040517fa9fbf51f0000000000000000000000000000000000000000000000000000000081526004016119689190612005565b60405180910390fd5b81156119d357838573ffffffffffffffffffffffffffffffffffffffff168273ffffffffffffffffffffffffffffffffffffffff167f8c5be1e5ebec7d5bd14f71427d1e84f3dd0314c0f7b2291e5b200ac8c7c3b92560405160405180910390a45b505b8360045f8581526020019081526020015f205f6101000a81548173ffffffffffffffffffffffffffffffffffffffff021916908373ffffffffffffffffffffffffffffffffffffffff16021790555050505050565b611a348383611c61565b611a48611a3f611042565b5f8585856115a6565b505050565b611a58838383611d54565b611b0b575f73ffffffffffffffffffffffffffffffffffffffff168373ffffffffffffffffffffffffffffffffffffffff1603611acc57806040517f7e273289000000000000000000000000000000000000000000000000000000008152600401611ac3919061202d565b60405180910390fd5b81816040517f177e802f000000000000000000000000000000000000000000000000000000008152600401611b0292919061279e565b60405180910390fd5b505050565b5f5f5f90507a184f03e93ff9f4daa797ed6e38ed64bf6a1f0100000000000000008310611b6c577a184f03e93ff9f4daa797ed6e38ed64bf6a1f0100000000000000008381611b6257611b61612771565b5b0492506040810190505b6d04ee2d6d415b85acef81000000008310611ba9576d04ee2d6d415b85acef81000000008381611b9f57611b9e612771565b5b0492506020810190505b662386f26fc100008310611bd857662386f26fc100008381611bce57611bcd612771565b5b0492506010810190505b6305f5e1008310611c01576305f5e1008381611bf757611bf6612771565b5b0492506008810190505b6127108310611c26576127108381611c1c57611c1b612771565b5b0492506004810190505b60648310611c495760648381611c3f57611c3e612771565b5b0492506002810190505b600a8310611c58576001810190505b80915050919050565b5f73ffffffffffffffffffffffffffffffffffffffff168273ffffffffffffffffffffffffffffffffffffffff1603611cd1575f6040517f64a0ae92000000000000000000000000000000000000000000000000000000008152600401611cc89190612005565b60405180910390fd5b5f611cdd83835f611078565b90505f73ffffffffffffffffffffffffffffffffffffffff168173ffffffffffffffffffffffffffffffffffffffff1614611d4f575f6040517f73c6ac6e000000000000000000000000000000000000000000000000000000008152600401611d469190612005565b60405180910390fd5b505050565b5f5f73ffffffffffffffffffffffffffffffffffffffff168373ffffffffffffffffffffffffffffffffffffffff1614158015611e0b57508273ffffffffffffffffffffffffffffffffffffffff168473ffffffffffffffffffffffffffffffffffffffff161480611dcc5750611dcb8484610df3565b5b80611e0a57508273ffffffffffffffffffffffffffffffffffffffff16611df283611009565b73ffffffffffffffffffffffffffffffffffffffff16145b5b90509392505050565b5f604051905090565b5f5ffd5b5f5ffd5b5f7fffffffff0000000000000000000000000000000000000000000000000000000082169050919050565b611e5981611e25565b8114611e63575f5ffd5b50565b5f81359050611e7481611e50565b92915050565b5f60208284031215611e8f57611e8e611e1d565b5b5f611e9c84828501611e66565b91505092915050565b5f8115159050919050565b611eb981611ea5565b82525050565b5f602082019050611ed25f830184611eb0565b92915050565b5f81519050919050565b5f82825260208201905092915050565b8281835e5f83830152505050565b5f601f19601f8301169050919050565b5f611f1a82611ed8565b611f248185611ee2565b9350611f34818560208601611ef2565b611f3d81611f00565b840191505092915050565b5f6020820190508181035f830152611f608184611f10565b905092915050565b5f819050919050565b611f7a81611f68565b8114611f84575f5ffd5b50565b5f81359050611f9581611f71565b92915050565b5f60208284031215611fb057611faf611e1d565b5b5f611fbd84828501611f87565b91505092915050565b5f73ffffffffffffffffffffffffffffffffffffffff82169050919050565b5f611fef82611fc6565b9050919050565b611fff81611fe5565b82525050565b5f6020820190506120185f830184611ff6565b92915050565b61202781611f68565b82525050565b5f6020820190506120405f83018461201e565b92915050565b61204f81611fe5565b8114612059575f5ffd5b50565b5f8135905061206a81612046565b92915050565b5f5f6040838503121561208657612085611e1d565b5b5f6120938582860161205c565b92505060206120a485828601611f87565b9150509250929050565b5f5f5f606084860312156120c5576120c4611e1d565b5b5f6120d28682870161205c565b93505060206120e38682870161205c565b92505060406120f486828701611f87565b9150509250925092565b5f819050919050565b5f61212161211c61211784611fc6565b6120fe565b611fc6565b9050919050565b5f61213282612107565b9050919050565b5f61214382612128565b9050919050565b61215381612139565b82525050565b5f60208201905061216c5f83018461214a565b92915050565b5f6020828403121561218757612186611e1d565b5b5f6121948482850161205c565b91505092915050565b6121a681611ea5565b81146121b0575f5ffd5b50565b5f813590506121c18161219d565b92915050565b5f5f604083850312156121dd576121dc611e1d565b5b5f6121ea8582860161205c565b92505060206121fb858286016121b3565b9150509250929050565b5f5ffd5b5f5ffd5b7f4e487b71000000000000000000000000000000000000000000000000000000005f52604160045260245ffd5b61224382611f00565b810181811067ffffffffffffffff821117156122625761226161220d565b5b80604052505050565b5f612274611e14565b9050612280828261223a565b919050565b5f67ffffffffffffffff82111561229f5761229e61220d565b5b6122a882611f00565b9050602081019050919050565b828183375f83830152505050565b5f6122d56122d084612285565b61226b565b9050828152602081018484840111156122f1576122f0612209565b5b6122fc8482856122b5565b509392505050565b5f82601f83011261231857612317612205565b5b81356123288482602086016122c3565b91505092915050565b5f5f5f5f6080858703121561234957612348611e1d565b5b5f6123568782880161205c565b94505060206123678782880161205c565b935050604061237887828801611f87565b925050606085013567ffffffffffffffff81111561239957612398611e21565b5b6123a587828801612304565b91505092959194509250565b5f5f604083850312156123c7576123c6611e1d565b5b5f6123d48582860161205c565b92505060206123e58582860161205c565b9150509250929050565b7f4e487b71000000000000000000000000000000000000000000000000000000005f52602260045260245ffd5b5f600282049050600182168061243357607f821691505b602082108103612446576124456123ef565b5b50919050565b7f57616c6c6574206c696d697420726561636865640000000000000000000000005f82015250565b5f612480601483611ee2565b915061248b8261244c565b602082019050919050565b5f6020820190508181035f8301526124ad81612474565b9050919050565b5f6060820190506124c75f830186611ff6565b6124d46020830185611ff6565b6124e1604083018461201e565b949350505050565b5f815190506124f78161219d565b92915050565b5f6020828403121561251257612511611e1d565b5b5f61251f848285016124e9565b91505092915050565b7f4e487b71000000000000000000000000000000000000000000000000000000005f52601160045260245ffd5b5f61255f82611f68565b91507fffffffffffffffffffffffffffffffffffffffffffffffffffffffffffffffff820361259157612590612528565b5b600182019050919050565b5f6060820190506125af5f830186611ff6565b6125bc602083018561201e565b6125c96040830184611ff6565b949350505050565b7f4e6f7420656e6f756768204554480000000000000000000000000000000000005f82015250565b5f612605600e83611ee2565b9150612610826125d1565b602082019050919050565b5f6020820190508181035f830152612632816125f9565b9050919050565b5f81905092915050565b5f61264d82611ed8565b6126578185612639565b9350612667818560208601611ef2565b80840191505092915050565b5f61267e8285612643565b915061268a8284612643565b91508190509392505050565b5f81519050919050565b5f82825260208201905092915050565b5f6126ba82612696565b6126c481856126a0565b93506126d4818560208601611ef2565b6126dd81611f00565b840191505092915050565b5f6080820190506126fb5f830187611ff6565b6127086020830186611ff6565b612715604083018561201e565b818103606083015261272781846126b0565b905095945050505050565b5f8151905061274081611e50565b92915050565b5f6020828403121561275b5761275a611e1d565b5b5f61276884828501612732565b91505092915050565b7f4e487b71000000000000000000000000000000000000000000000000000000005f52601260045260245ffd5b5f6040820190506127b15f830185611ff6565b6127be602083018461201e565b939250505056fea264697066735822122002100b666b6418b4579d337dc1a32fdadee2fce0580e9286a02877f33332a91664736f6c63430008230033","linkReferences":{}},"methodIdentifiers":{"approve(address,uint256)":"095ea7b3","balanceOf(address)":"70a08231","getApproved(uint256)":"081812fc","isApprovedForAll(address,address)":"e985e9c5","maxPerWallet()":"453c2310","mintWithETH()":"8f2aef5b","mintWithToken()":"171be8d0","name()":"06fdde03","owner()":"8da5cb5b","ownerOf(uint256)":"6352211e","paymentToken()":"3013ce29","renounceOwnership()":"715018a6","safeTransferFrom(address,address,uint256)":"42842e0e","safeTransferFrom(address,address,uint256,bytes)":"b88d4fde","setApprovalForAll(address,bool)":"a22cb465","supportsInterface(bytes4)":"01ffc9a7","symbol()":"95d89b41","ticketPriceETH()":"0911b51f","ticketPriceToken()":"bce70933","tokenIdCounter()":"98bdf6f5","tokenURI(uint256)":"c87b56dd","transferFrom(address,address,uint256)":"23b872dd","transferOwnership(address)":"f2fde38b","walletMints(address)":"f0293fd3","withdrawETH()":"e086e5ec"},"id":39}